{
  "contractName": "Owned",
  "abi": [
    {
      "constant": true,
      "inputs": [],
      "name": "owner",
      "outputs": [
        {
          "name": "",
          "type": "address"
        }
      ],
      "payable": false,
      "stateMutability": "view",
      "type": "function"
    },
    {
      "inputs": [],
      "payable": false,
      "stateMutability": "nonpayable",
      "type": "constructor"
    },
    {
      "constant": false,
      "inputs": [
        {
          "name": "_newOwner",
          "type": "address"
        }
      ],
      "name": "transferOwnsership",
      "outputs": [],
      "payable": false,
      "stateMutability": "nonpayable",
      "type": "function"
    }
  ],
  "bytecode": "0x608060405260008054600160a060020a031916905534801561002057600080fd5b5060008054600160a060020a033316600160a060020a031990911617905561018c8061004d6000396000f30060806040526004361061004b5763ffffffff7c01000000000000000000000000000000000000000000000000000000006000350416632841195b81146100505780638da5cb5b14610080575b600080fd5b34801561005c57600080fd5b5061007e73ffffffffffffffffffffffffffffffffffffffff600435166100be565b005b34801561008c57600080fd5b50610095610144565b6040805173ffffffffffffffffffffffffffffffffffffffff9092168252519081900360200190f35b6000543373ffffffffffffffffffffffffffffffffffffffff9081169116146100e657600080fd5b73ffffffffffffffffffffffffffffffffffffffff8116151561010857600080fd5b6000805473ffffffffffffffffffffffffffffffffffffffff191673ffffffffffffffffffffffffffffffffffffffff92909216919091179055565b60005473ffffffffffffffffffffffffffffffffffffffff16815600a165627a7a723058205a8f317d60678b2e21a854487322fa024b1a77ed3cf729fb3ac7f2d76e2e8d1e0029",
  "source": "pragma solidity 0.4.23;\r\n\r\ncontract Owned {\r\n    address public owner = 0;\r\n\r\n     modifier onlyOwner () {\r\n       require(owner == msg.sender);\r\n       _;\r\n     }\r\n\r\n     constructor(){\r\n        owner = msg.sender;\r\n     }\r\n\r\n     function transferOwnsership(address _newOwner) public onlyOwner {\r\n       require (_newOwner != 0);\r\n       owner = _newOwner;\r\n     }\r\n\r\n}\r\n",
  "sourcePath": "C:\\projects\\David\\smartcontract\\contracts\\Owned.sol",
  "compiler": {
    "name": "solc",
    "version": "0.4.23+commit.124ca40d.Emscripten.clang"
  },
  "schemaVersion": "2.0.0",
  "updatedAt": "2018-05-01T16:21:26.754Z"
}